{
  "contractName": "KidHope",
  "abi": [
    {
      "inputs": [],
      "payable": false,
      "stateMutability": "nonpayable",
      "type": "constructor"
    },
    {
      "constant": true,
      "inputs": [],
      "name": "getTotalDonated",
      "outputs": [
        {
          "name": "",
          "type": "uint256"
        }
      ],
      "payable": false,
      "stateMutability": "view",
      "type": "function"
    },
    {
      "constant": false,
      "inputs": [
        {
          "name": "_beneficiary",
          "type": "address"
        },
        {
          "name": "_budget",
          "type": "uint256"
        },
        {
          "name": "_accountSheet",
          "type": "string"
        }
      ],
      "name": "newEntity",
      "outputs": [
        {
          "name": "cOID",
          "type": "uint256"
        }
      ],
      "payable": false,
      "stateMutability": "nonpayable",
      "type": "function"
    },
    {
      "constant": false,
      "inputs": [
        {
          "name": "cOID",
          "type": "uint256"
        },
        {
          "name": "value",
          "type": "uint256"
        }
      ],
      "name": "approve",
      "outputs": [
        {
          "name": "success",
          "type": "bool"
        }
      ],
      "payable": false,
      "stateMutability": "nonpayable",
      "type": "function"
    },
    {
      "constant": true,
      "inputs": [
        {
          "name": "cOID",
          "type": "uint256"
        }
      ],
      "name": "allowance",
      "outputs": [
        {
          "name": "_amount",
          "type": "uint256"
        }
      ],
      "payable": false,
      "stateMutability": "view",
      "type": "function"
    },
    {
      "constant": false,
      "inputs": [
        {
          "name": "cOID",
          "type": "uint256"
        },
        {
          "name": "_tokens",
          "type": "uint256"
        }
      ],
      "name": "transferFrom",
      "outputs": [
        {
          "name": "success",
          "type": "bool"
        }
      ],
      "payable": true,
      "stateMutability": "payable",
      "type": "function"
    },
    {
      "constant": false,
      "inputs": [
        {
          "name": "cOID",
          "type": "uint256"
        },
        {
          "name": "_to",
          "type": "address"
        }
      ],
      "name": "spend",
      "outputs": [
        {
          "name": "",
          "type": "bool"
        }
      ],
      "payable": true,
      "stateMutability": "payable",
      "type": "function"
    },
    {
      "constant": false,
      "inputs": [],
      "name": "contribute",
      "outputs": [
        {
          "name": "success",
          "type": "bool"
        }
      ],
      "payable": true,
      "stateMutability": "payable",
      "type": "function"
    },
    {
      "constant": false,
      "inputs": [],
      "name": "distribute",
      "outputs": [
        {
          "name": "success",
          "type": "bool"
        }
      ],
      "payable": false,
      "stateMutability": "nonpayable",
      "type": "function"
    }
  ],
  "bytecode": "0x6060604052341561000f57600080fd5b336000806101000a81548173ffffffffffffffffffffffffffffffffffffffff021916908373ffffffffffffffffffffffffffffffffffffffff16021790555042600181905550600160028190555061077b8061006d6000396000f30060606040526004361061008e576000357c0100000000000000000000000000000000000000000000000000000000900463ffffffff1680630643be3e146100935780631e9f59db146100cc5780632e43d7dc1461011b5780635d35a3d914610152578063d56e306814610196578063d7bb99ba146101bf578063deab522b146101e1578063e4fc6b6d1461027a575b600080fd5b6100b260048080359060200190919080359060200190919050506102a7565b604051808215151515815260200191505060405180910390f35b610101600480803590602001909190803573ffffffffffffffffffffffffffffffffffffffff16906020019091905050610330565b604051808215151515815260200191505060405180910390f35b341561012657600080fd5b61013c60048080359060200190919050506103c5565b6040518082815260200191505060405180910390f35b341561015d57600080fd5b61017c60048080359060200190919080359060200190919050506103e5565b604051808215151515815260200191505060405180910390f35b34156101a157600080fd5b6101a9610426565b6040518082815260200191505060405180910390f35b6101c7610430565b604051808215151515815260200191505060405180910390f35b34156101ec57600080fd5b610264600480803573ffffffffffffffffffffffffffffffffffffffff1690602001909190803590602001909190803590602001908201803590602001908080601f016020809104026020016040519081016040528093929190818152602001838380828437820191505050505050919050506104f4565b6040518082815260200191505060405180910390f35b341561028557600080fd5b61028d6105fb565b604051808215151515815260200191505060405180910390f35b6000816007600085815260200190815260200160002060030154101515156102ce57600080fd5b816007600085815260200190815260200160002060020160008282540192505081905550816007600085815260200190815260200160002060030160008282540392505081905550816003600082825403925050819055506001905092915050565b60003460076000858152602001908152602001600020600201541015151561035757600080fd5b3460076000858152602001908152602001600020600201600082825403925050819055508173ffffffffffffffffffffffffffffffffffffffff166108fc349081150290604051600060405180830381858888f1935050505015156103bb57600080fd5b6001905092915050565b600060076000838152602001908152602001600020600301549050919050565b600060035482101515156103f857600080fd5b8160076000858152602001908152602001600020600301600082825401925050819055506001905092915050565b6000600354905090565b6000600560008154809291906001019190505560058190555060408051908101604052803373ffffffffffffffffffffffffffffffffffffffff1681526020013481525060086000600554815260200190815260200160002060008201518160000160006101000a81548173ffffffffffffffffffffffffffffffffffffffff021916908373ffffffffffffffffffffffffffffffffffffffff16021790555060208201518160010155905050346003600082825401925050819055506001905090565b60006004600081548092919060010191905055905060a0604051908101604052808573ffffffffffffffffffffffffffffffffffffffff1681526020018481526020016000815260200160008152602001838152506007600083815260200190815260200160002060008201518160000160006101000a81548173ffffffffffffffffffffffffffffffffffffffff021916908373ffffffffffffffffffffffffffffffffffffffff16021790555060208201518160010155604082015181600201556060820151816003015560808201518160040190805190602001906105dd9291906106aa565b50905050826006600082825401925050819055508090509392505050565b60008060006002546213c68002426001540311151561061957600080fd5b600c6002541115151561062b57600080fd5b60026000815480929190600101919050555060035460065481151561064c57fe5b049150600182111561065d57600191505b600090505b600454811115156106a15761069b8183600c600760008681526020019081526020016000206001015481151561069457fe5b04026103e5565b50610662565b60019250505090565b828054600181600116156101000203166002900490600052602060002090601f016020900481019282601f106106eb57805160ff1916838001178555610719565b82800160010185558215610719579182015b828111156107185782518255916020019190600101906106fd565b5b509050610726919061072a565b5090565b61074c91905b80821115610748576000816000905550600101610730565b5090565b905600a165627a7a723058204b10c20eae27c1bb1854f03947c6c56c2f4547ed1dbbb03612755f2e06e6be9a0029",
  "source": "pragma solidity ^0.4.11;\ncontract KidHope {\n    struct Donator {\n        address addr;\n        uint amount;\n    }\n    struct SP {\n        address addr;\n        uint amount;\n    }\n    struct CharitableOrganization {\n        address beneficiary;\n        uint budget;\n        uint received;\n        uint allowed;\n        string accountSheet;\n    }\n    address owner;\n    uint creationDate;\n    uint period;\n    uint totalDonations;\n    uint numCOs;\n    uint numDonators;\n    uint totalBudget;\n    mapping (uint => CharitableOrganization) charitableOrganizations;\n    mapping (uint => Donator) donators;\n    \n    // construtor\n    function KidHope () public {\n        owner = msg.sender;\n        creationDate = now;\n        period = 1;\n    }\n    function getTotalDonated() public view returns (uint) {\n        return totalDonations;\n    }\n    function newEntity(address _beneficiary, uint _budget, string _accountSheet) public returns (uint cOID) {\n        cOID = numCOs++;\n        charitableOrganizations[cOID] = CharitableOrganization(_beneficiary, _budget, 0, 0, _accountSheet);\n        totalBudget += _budget;\n        return cOID;\n    }\n    function approve(uint cOID, uint value) public returns (bool success) {\n        require(value >= totalDonations);\n        charitableOrganizations[cOID].allowed += value;\n        return true;\n    }\n    \n    function allowance (uint cOID) public constant returns (uint _amount) {\n        return charitableOrganizations[cOID].allowed;\n    }\n    function transferFrom(uint cOID, uint _tokens) public payable returns (bool success) {\n        require(charitableOrganizations[cOID].allowed >= _tokens);\n        charitableOrganizations[cOID].received += _tokens;\n        charitableOrganizations[cOID].allowed -= _tokens;\n        totalDonations -= _tokens;\n        return true;\n    }\n    \n    function spend (uint cOID, address _to) public payable returns (bool) {\n        require(charitableOrganizations[cOID].received >= msg.value);\n        charitableOrganizations[cOID].received -= msg.value;\n        _to.transfer(msg.value);\n        return true;\n    }\n    \n    function contribute() public payable returns (bool success) {\n        numDonators = numDonators++;\n        donators[numDonators] = Donator(msg.sender, msg.value);\n        totalDonations += msg.value;\n        return true;\n    }\n    \n    function distribute() public returns (bool success){\n        require(creationDate - now > (1296000) * period);\n        require(period <= 12);\n        period ++;\n        uint factor = totalBudget / totalDonations;\n        if (factor > 1) \n            factor = 1;\n        uint i = 0;\n        while (i <= numCOs) {\n        approve(i,charitableOrganizations[i].budget/12 * factor);\n            }\n            return true;\n        }\n}",
  "sourcePath": "/home/filipe/KidsAndHope/contracts/KidHope.sol",
  "compiler": {
    "name": "solc",
    "version": "0.4.19+commit.c4cbbb05.Emscripten.clang"
  },
  "schemaVersion": "1.0.1",
  "updatedAt": "2018-02-07T20:14:31.308Z"
}